{
  "_format": "hh-sol-artifact-1",
  "contractName": "SimpleAMM",
  "sourceName": "contracts_new/SimpleAMM.sol",
  "abi": [
    {
      "inputs": [
        {
          "internalType": "address",
          "name": "_tokenA",
          "type": "address"
        },
        {
          "internalType": "address",
          "name": "_tokenB",
          "type": "address"
        }
      ],
      "stateMutability": "nonpayable",
      "type": "constructor"
    },
    {
      "anonymous": false,
      "inputs": [
        {
          "indexed": true,
          "internalType": "address",
          "name": "sender",
          "type": "address"
        },
        {
          "indexed": false,
          "internalType": "uint256",
          "name": "amountA",
          "type": "uint256"
        },
        {
          "indexed": false,
          "internalType": "uint256",
          "name": "amountB",
          "type": "uint256"
        }
      ],
      "name": "Burn",
      "type": "event"
    },
    {
      "anonymous": false,
      "inputs": [
        {
          "indexed": true,
          "internalType": "address",
          "name": "sender",
          "type": "address"
        },
        {
          "indexed": false,
          "internalType": "uint256",
          "name": "amountA",
          "type": "uint256"
        },
        {
          "indexed": false,
          "internalType": "uint256",
          "name": "amountB",
          "type": "uint256"
        },
        {
          "indexed": false,
          "internalType": "uint256",
          "name": "liquidity",
          "type": "uint256"
        }
      ],
      "name": "Mint",
      "type": "event"
    },
    {
      "anonymous": false,
      "inputs": [
        {
          "indexed": true,
          "internalType": "address",
          "name": "sender",
          "type": "address"
        },
        {
          "indexed": true,
          "internalType": "address",
          "name": "tokenIn",
          "type": "address"
        },
        {
          "indexed": true,
          "internalType": "address",
          "name": "tokenOut",
          "type": "address"
        },
        {
          "indexed": false,
          "internalType": "uint256",
          "name": "amountIn",
          "type": "uint256"
        },
        {
          "indexed": false,
          "internalType": "uint256",
          "name": "amountOut",
          "type": "uint256"
        }
      ],
      "name": "Swap",
      "type": "event"
    },
    {
      "inputs": [],
      "name": "FEE",
      "outputs": [
        {
          "internalType": "uint256",
          "name": "",
          "type": "uint256"
        }
      ],
      "stateMutability": "view",
      "type": "function"
    },
    {
      "inputs": [],
      "name": "FEE_DENOMINATOR",
      "outputs": [
        {
          "internalType": "uint256",
          "name": "",
          "type": "uint256"
        }
      ],
      "stateMutability": "view",
      "type": "function"
    },
    {
      "inputs": [
        {
          "internalType": "address",
          "name": "",
          "type": "address"
        }
      ],
      "name": "balanceOf",
      "outputs": [
        {
          "internalType": "uint256",
          "name": "",
          "type": "uint256"
        }
      ],
      "stateMutability": "view",
      "type": "function"
    },
    {
      "inputs": [
        {
          "internalType": "address",
          "name": "to",
          "type": "address"
        }
      ],
      "name": "burn",
      "outputs": [
        {
          "internalType": "uint256",
          "name": "amountA",
          "type": "uint256"
        },
        {
          "internalType": "uint256",
          "name": "amountB",
          "type": "uint256"
        }
      ],
      "stateMutability": "nonpayable",
      "type": "function"
    },
    {
      "inputs": [
        {
          "internalType": "uint256",
          "name": "amountIn",
          "type": "uint256"
        },
        {
          "internalType": "address",
          "name": "tokenIn",
          "type": "address"
        },
        {
          "internalType": "address",
          "name": "tokenOut",
          "type": "address"
        }
      ],
      "name": "getAmountOut",
      "outputs": [
        {
          "internalType": "uint256",
          "name": "amountOut",
          "type": "uint256"
        }
      ],
      "stateMutability": "view",
      "type": "function"
    },
    {
      "inputs": [
        {
          "internalType": "address",
          "name": "to",
          "type": "address"
        }
      ],
      "name": "mint",
      "outputs": [
        {
          "internalType": "uint256",
          "name": "liquidity",
          "type": "uint256"
        }
      ],
      "stateMutability": "nonpayable",
      "type": "function"
    },
    {
      "inputs": [],
      "name": "reserveA",
      "outputs": [
        {
          "internalType": "uint256",
          "name": "",
          "type": "uint256"
        }
      ],
      "stateMutability": "view",
      "type": "function"
    },
    {
      "inputs": [],
      "name": "reserveB",
      "outputs": [
        {
          "internalType": "uint256",
          "name": "",
          "type": "uint256"
        }
      ],
      "stateMutability": "view",
      "type": "function"
    },
    {
      "inputs": [
        {
          "internalType": "uint256",
          "name": "amountIn",
          "type": "uint256"
        },
        {
          "internalType": "address",
          "name": "tokenIn",
          "type": "address"
        },
        {
          "internalType": "address",
          "name": "tokenOut",
          "type": "address"
        },
        {
          "internalType": "uint256",
          "name": "amountOutMin",
          "type": "uint256"
        },
        {
          "internalType": "address",
          "name": "to",
          "type": "address"
        }
      ],
      "name": "swap",
      "outputs": [
        {
          "internalType": "uint256",
          "name": "amountOut",
          "type": "uint256"
        }
      ],
      "stateMutability": "nonpayable",
      "type": "function"
    },
    {
      "inputs": [],
      "name": "tokenA",
      "outputs": [
        {
          "internalType": "address",
          "name": "",
          "type": "address"
        }
      ],
      "stateMutability": "view",
      "type": "function"
    },
    {
      "inputs": [],
      "name": "tokenB",
      "outputs": [
        {
          "internalType": "address",
          "name": "",
          "type": "address"
        }
      ],
      "stateMutability": "view",
      "type": "function"
    },
    {
      "inputs": [],
      "name": "totalSupply",
      "outputs": [
        {
          "internalType": "uint256",
          "name": "",
          "type": "uint256"
        }
      ],
      "stateMutability": "view",
      "type": "function"
    }
  ],
  "bytecode": "0x608060405234801561001057600080fd5b506040516112d63803806112d683398101604081905261002f9161007c565b600080546001600160a01b039384166001600160a01b031991821617909155600180549290931691161790556100af565b80516001600160a01b038116811461007757600080fd5b919050565b6000806040838503121561008f57600080fd5b61009883610060565b91506100a660208401610060565b90509250929050565b611218806100be6000396000f3fe608060405234801561001057600080fd5b50600436106100b45760003560e01c806370a082311161007157806370a082311461014257806389afcb44146101625780639f6eb1061461018a578063c57981b51461019d578063d73792a9146101a5578063dc5fa6c5146101ae57600080fd5b80630fc63d10146100b957806318160ddd146100e957806319e36f3b146101005780635e1e6325146101095780635f64b55b1461011c5780636a6278421461012f575b600080fd5b6000546100cc906001600160a01b031681565b6040516001600160a01b0390911681526020015b60405180910390f35b6100f260045481565b6040519081526020016100e0565b6100f260035481565b6100f261011736600461107d565b6101b7565b6001546100cc906001600160a01b031681565b6100f261013d3660046110b9565b61045d565b6100f26101503660046110b9565b60056020526000908152604090205481565b6101756101703660046110b9565b6106b1565b604080519283526020830191909152016100e0565b6100f26101983660046110d4565b610a8e565b6100f2600381565b6100f26103e881565b6100f260025481565b600080546001600160a01b03848116911614806101e157506001546001600160a01b038481169116145b6102245760405162461bcd60e51b815260206004820152600f60248201526e24b73b30b634b2103a37b5b2b724b760891b60448201526064015b60405180910390fd5b6000546001600160a01b038381169116148061024d57506001546001600160a01b038381169116145b61028c5760405162461bcd60e51b815260206004820152601060248201526f125b9d985b1a59081d1bdad95b93dd5d60821b604482015260640161021b565b816001600160a01b0316836001600160a01b0316036102e05760405162461bcd60e51b815260206004820152601060248201526f4964656e746963616c20746f6b656e7360801b604482015260640161021b565b600080546040516370a0823160e01b81523060048201526001600160a01b03909116906370a0823190602401602060405180830381865afa158015610329573d6000803e3d6000fd5b505050506040513d601f19601f8201168201806040525081019061034d919061112b565b6001546040516370a0823160e01b81523060048201529192506000916001600160a01b03909116906370a0823190602401602060405180830381865afa15801561039b573d6000803e3d6000fd5b505050506040513d601f19601f820116820180604052508101906103bf919061112b565b905060006103d060036103e861115a565b6103da908861116d565b6000549091506001600160a01b039081169087160361042557806104006103e88561116d565b61040a9190611184565b610414838361116d565b61041e9190611197565b9350610453565b806104326103e88461116d565b61043c9190611184565b610446848361116d565b6104509190611197565b93505b5050509392505050565b600080546040516370a0823160e01b815230600482015282916001600160a01b0316906370a0823190602401602060405180830381865afa1580156104a6573d6000803e3d6000fd5b505050506040513d601f19601f820116820180604052508101906104ca919061112b565b6001546040516370a0823160e01b81523060048201529192506000916001600160a01b03909116906370a0823190602401602060405180830381865afa158015610518573d6000803e3d6000fd5b505050506040513d601f19601f8201168201806040525081019061053c919061112b565b905060006002548361054e919061115a565b9050600060035483610560919061115a565b90506004546000036105855761057e610579828461116d565b610fe3565b94506105c5565b6105c260025460045484610599919061116d565b6105a39190611197565b6003546004546105b3908561116d565b6105bd9190611197565b61104c565b94505b600085116106155760405162461bcd60e51b815260206004820152601d60248201527f496e73756666696369656e74206c6971756964697479206d696e746564000000604482015260640161021b565b6001600160a01b0386166000908152600560205260408120805487929061063d908490611184565b9250508190555084600460008282546106569190611184565b909155505060028490556003839055604080518381526020810183905290810186905233907fb4c03061fb5b7fed76389d5af8f2e0ddb09f8c70d1333abbb62582835e10accb9060600160405180910390a250505050919050565b3060008181526005602052604080822054825491516370a0823160e01b81526004810194909452919283929183916001600160a01b03909116906370a0823190602401602060405180830381865afa158015610711573d6000803e3d6000fd5b505050506040513d601f19601f82011682018060405250810190610735919061112b565b6001546040516370a0823160e01b81523060048201529192506000916001600160a01b03909116906370a0823190602401602060405180830381865afa158015610783573d6000803e3d6000fd5b505050506040513d601f19601f820116820180604052508101906107a7919061112b565b6004549091506107b7838561116d565b6107c19190611197565b6004549095506107d1828561116d565b6107db9190611197565b93506000851180156107ed5750600084115b6108395760405162461bcd60e51b815260206004820152601d60248201527f496e73756666696369656e74206c6971756964697479206275726e6564000000604482015260640161021b565b306000908152600560205260408120805485929061085890849061115a565b925050819055508260046000828254610871919061115a565b909155505060005460405163a9059cbb60e01b81526001600160a01b038881166004830152602482018890529091169063a9059cbb906044016020604051808303816000875af11580156108c9573d6000803e3d6000fd5b505050506040513d601f19601f820116820180604052508101906108ed91906111b9565b5060015460405163a9059cbb60e01b81526001600160a01b038881166004830152602482018790529091169063a9059cbb906044016020604051808303816000875af1158015610941573d6000803e3d6000fd5b505050506040513d601f19601f8201168201806040525081019061096591906111b9565b506000546040516370a0823160e01b81523060048201526001600160a01b03909116906370a0823190602401602060405180830381865afa1580156109ae573d6000803e3d6000fd5b505050506040513d601f19601f820116820180604052508101906109d2919061112b565b6001546040516370a0823160e01b81523060048201529193506001600160a01b0316906370a0823190602401602060405180830381865afa158015610a1b573d6000803e3d6000fd5b505050506040513d601f19601f82011682018060405250810190610a3f919061112b565b600283905560038190559050604080518681526020810186905233917f49995e5dd6158cf69ad3e9777c46755a1a826a446c6416992167462dad033b2a910160405180910390a2505050915091565b600080546001600160a01b0386811691161480610ab857506001546001600160a01b038681169116145b610af65760405162461bcd60e51b815260206004820152600f60248201526e24b73b30b634b2103a37b5b2b724b760891b604482015260640161021b565b6000546001600160a01b0385811691161480610b1f57506001546001600160a01b038581169116145b610b5e5760405162461bcd60e51b815260206004820152601060248201526f125b9d985b1a59081d1bdad95b93dd5d60821b604482015260640161021b565b836001600160a01b0316856001600160a01b031603610bb25760405162461bcd60e51b815260206004820152601060248201526f4964656e746963616c20746f6b656e7360801b604482015260640161021b565b600080546040516370a0823160e01b81523060048201526001600160a01b03909116906370a0823190602401602060405180830381865afa158015610bfb573d6000803e3d6000fd5b505050506040513d601f19601f82011682018060405250810190610c1f919061112b565b6001546040516370a0823160e01b81523060048201529192506000916001600160a01b03909116906370a0823190602401602060405180830381865afa158015610c6d573d6000803e3d6000fd5b505050506040513d601f19601f82011682018060405250810190610c91919061112b565b90506000610ca260036103e861115a565b610cac908a61116d565b6000549091506001600160a01b0390811690891603610db85780610cd26103e88561116d565b610cdc9190611184565b610ce6838361116d565b610cf09190611197565b935085841015610d3b5760405162461bcd60e51b8152602060048201526016602482015275125b9cdd59999a58da595b9d08185b5bdd5b9d13dd5d60521b604482015260640161021b565b60015460405163a9059cbb60e01b81526001600160a01b038781166004830152602482018790529091169063a9059cbb906044016020604051808303816000875af1158015610d8e573d6000803e3d6000fd5b505050506040513d601f19601f82011682018060405250810190610db291906111b9565b50610ea7565b80610dc56103e88461116d565b610dcf9190611184565b610dd9848361116d565b610de39190611197565b935085841015610e2e5760405162461bcd60e51b8152602060048201526016602482015275125b9cdd59999a58da595b9d08185b5bdd5b9d13dd5d60521b604482015260640161021b565b60005460405163a9059cbb60e01b81526001600160a01b038781166004830152602482018790529091169063a9059cbb906044016020604051808303816000875af1158015610e81573d6000803e3d6000fd5b505050506040513d601f19601f82011682018060405250810190610ea591906111b9565b505b6000546040516370a0823160e01b81523060048201526001600160a01b03909116906370a0823190602401602060405180830381865afa158015610eef573d6000803e3d6000fd5b505050506040513d601f19601f82011682018060405250810190610f13919061112b565b6001546040516370a0823160e01b81523060048201529194506001600160a01b0316906370a0823190602401602060405180830381865afa158015610f5c573d6000803e3d6000fd5b505050506040513d601f19601f82011682018060405250810190610f80919061112b565b600284905560038190559150604080518a8152602081018690526001600160a01b03808a1692908b169133917fcd3829a3813dc3cdd188fd3d01dcf3268c16be2fdd2dd21d0665418816e46062910160405180910390a450505095945050505050565b600081600003610ff557506000919050565b611000600283611197565b61100b906001611184565b90505b6110188183611197565b8111156110475760028161102c8185611197565b6110369190611184565b6110409190611197565b905061100e565b919050565b600081831061105b578161105d565b825b90505b92915050565b80356001600160a01b038116811461104757600080fd5b60008060006060848603121561109257600080fd5b833592506110a260208501611066565b91506110b060408501611066565b90509250925092565b6000602082840312156110cb57600080fd5b61105d82611066565b600080600080600060a086880312156110ec57600080fd5b853594506110fc60208701611066565b935061110a60408701611066565b92506060860135915061111f60808701611066565b90509295509295909350565b60006020828403121561113d57600080fd5b5051919050565b634e487b7160e01b600052601160045260246000fd5b8181038181111561106057611060611144565b808202811582820484141761106057611060611144565b8082018082111561106057611060611144565b6000826111b457634e487b7160e01b600052601260045260246000fd5b500490565b6000602082840312156111cb57600080fd5b815180151581146111db57600080fd5b939250505056fea2646970667358221220f774622a2184fa7137ad1ac9f2b27a84be9ff3e80f9301631806b1c57ab3e4b564736f6c63430008140033",
  "linkReferences": {},
  "deployedLinkReferences": {}
}